:020000040000FA
:040800004BEF3FF08B
:107E96000001ADEF3FF0036E81928190000E046EFB
:107EA600070E046401D01CD004C001F003C002F028
:107EB600012A02D0D8900232012EFCD7010E0216FA
:107EC60002320232825002187F0B0218826E070EAF
:107ED6000418D8B48180818200F08192042AE0D708
:107EE60081901200000E066E02AE06D0016C021ED4
:107EF600D8B0022A010E066E04AE04D0036C041E2E
:107F0600D8B0042A03500410D8B418D0010E056E58
:107F160004D0D89003360436052A04AEFAD70350A7
:107F2600015C04500258D8A004D00350015E0450EE
:107F3600025AD89004320332052EF1D70650D8B42F
:107F460004D0016C021ED8B0022A01C001F002C0A2
:107F560002F01200000E806E9268929A0F0EC16EA9
:107F6600070EB46E000E816E000E936E000E826ECA
:107F7600000E946E8186010E0824016E026A000EC0
:107F86000222000E046E036875EC3FF00150086E85
:107F960008504EEC3FF0820E076EDE0EE82EFED73E
:107FA600072EFCD7820E076EDE0EE82EFED7072EB2
:107FB600FCD7820E076EDE0EE82EFED7072EFCD704
:107FC600820E076EDE0EE82EFED7072EFCD7820E37
:107FD600076EDE0EE82EFED7072EFCD7820E076E42
:107FE600DE0EE82EFED7072EFCD7820E076EDE0EBB
:0A7FF600E82EFED7072EFCD7BED7F9
:020000040020DA
:08000000FFFFFFFFFFFFFFFF00
:020000040030CA
:0E00000000051F1FFF8385FF0FC00FE00F409C
:00000001FF
